:020000040800F2
:1000000078060020650100089D12000849120008CA
:1000100000000000000000000000000000000000E0
:10002000000000000000000000000000A312000813
:100030000000000000000000A1120008ED120008FE
:100040007701000800000000770100087701000830
:1000500077010008770100087701000877010008A0
:100060000000000077010008770100087701000810
:100070007701000877010008770100080000000000
:100080007701000800000000000000007701000870
:1000900000000000770100087701000877010008E0
:1000A0007701000877010008770100087701000850
:1000B00077010008000000000000000000000000C0
:1000C00000F002F800F03EF80CA030C80838241800
:1000D0002D18671EA246AB4654465D46AC4201D180
:1000E00000F030F87E460F3EB6460FCC0126334274
:1000F00000D0FB1A3343A246AB4618473414000025
:1001000054140000103A02D378C878C1FAD85207C4
:1001100001D330C830C101D504680C6070470000BD
:100120000023002400250026103A01D378C1FBD813
:10013000520700D330C100D50B6070471FB51FBDFB
:1001400010B510BD00F003F91146FFF7F7FF01F0FD
:10015000ABF900F01BF903B4FFF7F2FF03BC00F0AA
:1001600021F900000748804707480047FEE7FEE7FF
:10017000FEE7FEE7FEE7FEE704480549054A064BB1
:100180007047000061130008C100000878000020DB
:1001900078060020780200207802002001E004C0E8
:1001A000091F0429FBD28B0701D50280801CC907D7
:1001B00000D00270704700290BD0C30702D0027034
:1001C000401C491E022904D3830702D50280801CEB
:1001D000891EE3E70022EEE70022DFE700220309A1
:1001E0008B422CD3030A8B4211D300239C464EE052
:1001F00003460B433CD4002243088B4231D303090E
:100200008B421CD3030A8B4201D394463FE0C309BF
:100210008B4201D3CB01C01A524183098B4201D3D7
:100220008B01C01A524143098B4201D34B01C01AC2
:10023000524103098B4201D30B01C01A5241C3083A
:100240008B4201D3CB00C01A524183088B4201D3A9
:100250008B00C01A524143088B4201D34B00C01A95
:100260005241411A00D201465241104670475DE0AA
:10027000CA0F00D04942031000D3404253409C466D
:10028000002203098B422DD3030A8B4212D389012A
:10029000FC2212BA030A8B420CD3890192118B42C1
:1002A00008D3890192118B4204D389013AD092116B
:1002B00000E08909C3098B4201D3CB01C01A524126
:1002C00083098B4201D38B01C01A524143098B42EF
:1002D00001D34B01C01A524103098B4201D30B01D8
:1002E000C01A5241C3088B4201D3CB00C01A5241FD
:1002F00083088B4201D38B00C01A5241D9D24308E4
:100300008B4201D34B00C01A5241411A00D2014620
:100310005241104663465B1001D34042002B00D58A
:100320004942704763465B1000D3404201B505491E
:10033000002802DC491C084000E00846C046C046D0
:1003400002BD00BFFFFFFF7F7047704770477546D3
:1003500000F024F8AE46050069465346C008C000C8
:10036000854618B020B5FFF707FF60BCB6460026EB
:100370000027C0C5C0C5C0C5C0C5C0C5C0C5C0C5B3
:10038000C0C5403D490849008D46704710B5044638
:10039000C046C0462046FFF7DEFE10BD004870474D
:1003A0001000002001491820ABBEFEE72600020025
:1003B000704772B6FFE7FEE78AB009900891002007
:1003C0000790FFE7089800680799C840002800D107
:1003D00047E108980068079A01219140084006907B
:1003E0000698002800D138E10898406803210840A9
:1003F000012807D0FFE70898406803210840022839
:100400002CD1FFE7099880680590079840000321E8
:1004100081400598884305900898C1680798400076
:1004200081400598084305900598099988600998C6
:100430004068059007980121814005988843059000
:1004400008984068102108400109079881400598E4
:1004500008430590059809994860FFE708984068A7
:1004600003210840032816D0FFE70998C0680590CB
:10047000079840000321814005988843059008981B
:1004800081680798400081400598084305900598C9
:100490000999C860FFE708984068032108400228CE
:1004A00020D1FFE709980799C90889004018006A18
:1004B000059007984007C00E0F218140059888439A
:1004C00005900898016907984007C00E814005987B
:1004D0000843059005980999079AD208920089184F
:1004E0000862FFE70998006805900798410003201B
:1004F00002468A400599914305910899496801404F
:10050000079840008140059808430590059809998F
:100510000860089880798007002800D19CE007983F
:100520000321884350494058059007988007C00E22
:100530000F218140059888430590099805210907F6
:10054000884203D1FFE70020049022E00998474940
:10055000884203D1FFE70120039017E0099844493E
:10056000884203D1FFE7022002900CE00999414A3A
:100570000320052300939142019001D0009801903F
:1005800001980290FFE702980390FFE70398049018
:10059000FFE7049907988007C00E8140059808433B
:1005A000059005980799032291432F4A88503248B5
:1005B0000068059006990598884305900898807909
:1005C000C007002805D0FFE7069905980843059065
:1005D000FFE70598284908602848006805900699B3
:1005E000059888430590089880798007002805D5EC
:1005F000FFE70699059808430590FFE705981F490E
:1006000008601F4800680590069905988843059082
:1006100008988079C006002805D5FFE70699059857
:1006200008430590FFE705981549086015480068DC
:10063000059006990598884305900898807980066A
:10064000002805D5FFE70699059808430590FFE7C0
:1006500005980C490860FFE7FFE70798401C0790E2
:10066000B0E60AB07047C04660180240000400506F
:1006700000080050000C005080180240841802400E
:100680000018024004180240054800687047C04640
:100690003048027802490868801808607047C046F0
:1006A0007400002080B582B001A900200870E049E4
:1006B00008680122120210430860032000F00EF8BF
:1006C000002804D0FFE701A90120087002E000F033
:1006D00043F8FFE701A8007802B080BD80B584B080
:1006E000039002A9002008701A480078002829D039
:1006F000FFE7D34800680190164801787D20C000CC
:10070000FFF76CFD01460198FFF768FD00F094FDCE
:10071000002812D1FFE70398032809D8FFE70399BF
:100720000022D04300F019F80398C649086003E09E
:1007300002A901200870FFE703E002A90120087068
:10074000FFE703E002A901200870FFE702A8007894
:1007500004B080BD04000020704780B584B003461B
:1007600003A803700291019200214056029900F003
:10077000F9FD04B080BD000080B584B002901A4934
:100780000868032252029043029A104308600298BC
:100790000121490288421ED1FFE7A94801680620CD
:1007A00048431249FFF71AFD401C0190FFE710482B
:1007B0000068400500280DD5FFE70198002804D007
:1007C000FFE70198401E019003E003A90320087091
:1007D00005E0ECE7FFE703A900200870FFE703A8A6
:1007E000007804B080BDC0460070004040420F0059
:1007F0001470004080B584B00290019102980028E6
:1008000004D1FFE703A9012008700CE10198884991
:10081000096807221140884221D9FFE78449086806
:1008200007229043019A10430860FFF72DFF0090C4
:10083000FFE77F48006807210840019988420DD0F2
:10084000FFE7FFF721FF0099401A7F49884204D350
:10085000FFE703A903200870E5E0EAE7FFE7029855
:1008600000788007002817D5FFE702980078400736
:10087000002807D5FFE7B84908680722120310438C
:100880000860FFE7B44908680F2212029043029AF9
:10089000926810430860FFE702980078C0070028BC
:1008A00072D0FFE70298406801280BD1FFE7AE48FD
:1008B00000688003002804D4FFE703A90120087022
:1008C000B1E03DE00298406802280BD1FFE7A6485E
:1008D00000688001002804D4FFE703A90120087004
:1008E000A1E02CE00298406800280BD1FFE79E4869
:1008F00000684005002804D4FFE703A90120087020
:1009000091E01BE00298406803280BD1FFE74A48BA
:1009100000688007002804D4FFE703A901200870BD
:1009200081E00AE0434800688007002804D4FFE71C
:1009300003A90120087076E0FFE7FFE7FFE7FFE784
:100940008549086807229043029A5268104308605C
:10095000FFF79AFE0090FFE77F48006838210840C3
:1009600002994968C90088420DD0FFE7FFF78CFE65
:100970000099401A3449884204D3FFE703A90320B1
:10098000087050E0E8E7FFE7019829490968072265
:100990001140884221D2FFE7254908680722904389
:1009A000019A10430860FFF76FFE0090FFE72048B0
:1009B000006807210840019988420DD0FFE7FFF742
:1009C00063FE0099401A2049884204D3FFE703A937
:1009D0000320087027E0EAE7FFE702980078400765
:1009E00000280AD5FFE75C490868072212039043F4
:1009F000029AD26810430860FFE700F027F85649D2
:100A000009680F22120211408A090C4989581F22D5
:100A10001140C8400A4908600A480068FFF75EFEB6
:100A200003A90870FFE703A8007804B080BDC046A2
:100A3000002002405C10024060100240F0140008E8
:100A400000000020080000208913000080B588B055
:100A5000414800688006400F00280FD1FFE7424858
:100A600000680721C9020840C10A0120884003909C
:100A700003993C48FFF7B2FB029069E036480068F2
:100A800038210840082803D1FFE7354802905EE08E
:100A9000314800683821084010283CD1FFE72F4832
:100AA0000168032211400691006870210840000986
:100AB000401C049006980190022812D0FFE701988C
:100AC00003280FD1FFE704992548FFF787FB01466C
:100AD000224800687F2212021040000A4843079013
:100AE0000EE0FFE704991F48FFF778FB01461B481B
:100AF00000687F2212021040000A48430790FFE777
:100B000016480068400F401C059007980599FFF7AC
:100B100065FB02901AE01048006838210840202840
:100B200004D1FFE70120C00302900EE00A480068EC
:100B300038210840182804D1FFE77D2000020290E8
:100B400002E000200290FFE7FFE7FFE7FFE7FFE793
:100B5000029808B080BDC046081002400C10024048
:100B600000127A000024F4000010024010B588B092
:100B700006900698002804D1FFE707A90120087015
:100B80002EE306980078C007002800D188E0FC48D2
:100B90000068382108400490FA48006803210840A2
:100BA00003900498102804D1FFE70398032804D089
:100BB000FFE70498082810D1FFE7F8480068800391
:100BC000002809D5FFE706984068002804D1FFE710
:100BD00007A90120087003E361E0FFE70698406879
:100BE00001210904884207D1FFE7EC490868012286
:100BF0001204104308601DE00698406805210904AE
:100C000088420BD1FFE7E5490868012293041843A5
:100C1000086008681204104308600AE0DF490868A9
:100C20000122130498430860086892049043086006
:100C3000FFE7FFE7FFE706984068002817D0FFE7C7
:100C4000FFF722FD0590FFE7D448006880030028E5
:100C50000CD4FFE7FFF718FD0599401A652804D367
:100C6000FFE707A903200870BAE2EDE716E0FFF7F7
:100C70000BFD0590FFE7C9480068800300280CD5EC
:100C8000FFE7FFF701FD0599401A652804D3FFE748
:100C900007A903200870A3E2EDE7FFE7FFE7FFE7FE
:100CA000069800788007002800D4A3E0B4480068C4
:100CB000382108400490B34800680321084003909D
:100CC0000498102804D1FFE70398022804D0FFE716
:100CD000049800283BD1FFE7B04800684005002891
:100CE00009D5FFE70698C068002804D1FFE707A9E7
:100CF0000120087074E2AA4908687F22120290431A
:100D0000069A52691202104308600498002811D113
:100D1000FFE7A24802680721C9028A43069B1B69B4
:100D20001A43026000680840C10A9E48C8409E49B4
:100D30000860FFE79D480068FFF7D0FC002804D05A
:100D4000FFE707A9012008704AE2FFE751E0069893
:100D5000C06800282FD0FFE7904908680722D20218
:100D60009043069A12691043086008680122120233
:100D700010430860FFF788FC0590FFE7874800688C
:100D8000400500280CD4FFE7FFF77EFC0599401AC8
:100D9000032804D3FFE707A90320087020E2EDE74A
:100DA0007F4908687F2212029043069A5269120214
:100DB000104308601CE07949086801221202904340
:100DC0000860FFF761FC0590FFE774480068400584
:100DD00000280CD5FFE7FFF757FC0599401A0328B8
:100DE00004D3FFE707A903200870F9E1EDE7FFE767
:100DF000FFE7FFE7069800780007002856D5FFE7D1
:100E0000F948006838210840182810D1FFE7F94850
:100E100000688007002809D5FFE706988069002848
:100E200004D1FFE707A901200870D9E13DE0069849
:100E3000806900281CD0FFE7EE49086801221043B2
:100E40000860FFF721FC0590FFE7EA48006880078B
:100E500000280CD4FFE7FFF717FC0599401A032878
:100E600004D3FFE707A903200870B9E1EDE71BE011
:100E7000E0490868012290430860FFF705FC0590EF
:100E8000FFE7DC480068800700280CD5FFE7FFF784
:100E9000FBFB0599401A032804D3FFE707A90320A9
:100EA00008709DE1EDE7FFE7FFE7FFE706980078B0
:100EB0004007002800D4CAE002A900200870CA48F0
:100EC000006838210840202810D1FFE7CC4800688E
:100ED0008007002809D5FFE706988068002804D11C
:100EE000FFE707A9012008707AE1AFE0C248006877
:100EF000C000002810D4FFE7FFE7BF4802680121C7
:100F000009070A4302600068084001900198FFE762
:100F100002A901200870FFE7B8480068C005002852
:100F20001DD4FFE7B549086801221202104308608A
:100F3000FFF7AAFB0590FFE7B0480068C00500284E
:100F40000CD4FFE7FFF7A0FB0599401A032804D350
:100F5000FFE707A90320087042E1EDE7FFE7FFE79D
:100F600006988068012806D1FFE7A5490868012294
:100F70001043086027E006988068052818D103E030
:100F8000081002400C1002409D49086804221043DA
:100F90000860086801221043086013E00010024056
:100FA000041002400024F40000000020080000208B
:100FB000934908680122904308600868042290431E
:100FC0000860FFE7FFE7FFE706988068002818D071
:100FD000FFE7FFF759FB0590FFE7894800688007A6
:100FE00000280DD4FFE7FFF74FFB0599401A85490C
:100FF000884204D3FFE707A903200870F0E0ECE77C
:1010000017E0FFF741FB0590FFE77D480068800788
:1010100000280DD5FFE7FFF737FB0599401A7949FE
:10102000884204D3FFE707A903200870D8E0ECE763
:10103000FFE702A80078012807D1FFE76E4908689A
:101040000122120790430860FFE7FFE7FFE70698D9
:10105000C069002800D1BFE063480068382108401B
:1010600010287AD0FFE70698C06902284ED1FFE722
:101070005F4908680122120690430860FFF704FBED
:101080000590FFE75A480068800100280CD5FFE76B
:10109000FFF7FAFA0599401A032804D3FFE707A9D6
:1010A000032008709CE0EDE750490868574A10405B
:1010B000069B1A6A5C6A22439C6A24022243DC6A09
:1010C00022431B6B1A4310430860494B18680122E6
:1010D0001406204318600868120710430860FFF7E1
:1010E000D3FA0590FFE742480068800100280CD43D
:1010F000FFE7FFF7C9FA0599401A032804D3FFE771
:1011000007A9032008706BE0EDE725E0384908687F
:101110000122120690430860344908680322904374
:1011200008600868384A10400860FFF7ADFA05907B
:10113000FFE72F480068800100280CD5FFE7FFF784
:10114000A3FA0599401A032804D3FFE707A903204F
:10115000087045E0EDE7FFE73DE00698C06901282B
:1011600004D1FFE707A90120087039E01F48006893
:1011700003900398032108400699096A884224D104
:10118000FFE70398702108400699496A88421CD1FC
:10119000FFE703987F21090208400699896A09023E
:1011A000884212D1FFE703981F214904084006999D
:1011B000C96A884209D1FFE7039807214907084017
:1011C0000699096B884204D0FFE707A9012008703F
:1011D00006E0FFE7FFE7FFE707A900200870FFE749
:1011E00007A8007808B010BD081002400C1002409B
:1011F00000100240601002403C10024000700040AD
:101200005C10024089130000FFFFFEEF8C80C11FBD
:1012100081B000900098042806D1FFE732490868A1
:1012200004221043086005E02F4908680422904317
:101230000860FFE701B0704780B582B00190019867
:1012400000F030F802B080BDFFE7FEE780B586B061
:10125000002005900490039002900190FFE70B4856
:10126000026802210A43026000680840009000986A
:10127000FFE70120019002900020039004900448B1
:1012800001A9FFF799F806B080BDC04634100240AE
:101290000004005080B5FFF7D9FF80BDFFE7FEE7EF
:1012A0007047704780B584B002900298401E000ECF
:1012B000002803D0FFE70120039011E00298401EB0
:1012C0007649086000200190C043032100F04AF8ED
:1012D000019874490860044A072111600390FFE7F0
:1012E000039804B080BDC04610E000E080B5FFF771
:1012F000CFF980BD80B594B007A802903421FEF7E5
:101300006BFF00200190069005900490039001204F
:1013100000904002FFF730FA009A019902980223E8
:10132000079312020A920B9140220C920E91FFF742
:101330001DFC002803D0FFE7FFF73BF8FFE707207D
:101340000390002104910591069103A8FFF752FA3A
:10135000002803D0FFE7FFF72CF8FFE714B080BDAB
:101360007047000070B582B0024601A8027000917B
:1013700000214056002816D4FFE7002401A9085791
:101380000322D3431840174A805809578C07E50EAB
:10139000FF24AC40A043009CA401E4B2AC40204335
:1013A000194088501AE001A908780F242040083815
:1013B0000322D34318400A4A8058002549578D0715
:1013C000EE0EFF25B540A843009DAD01EDB2B5403E
:1013D00028432140083919408850FFE702B070BD0A
:1013E0001CED00E000E400E080B582B00190FFE772
:1013F0000198411E0191002805D0FFE77D20C00023
:1014000000F012F8F4E702B080BD000080B582B0B1
:1014100001A9009108700420FFF7FAFE00980078F7
:101420001F49086002B080BD86B005900020019081
:101430001A480068009005991948006848430490CC
:10144000184800680390FFE7164800680290029869
:10145000039988421ED0FFE702980399884207D279
:10146000FFE703980299411A01984018019008E09B
:1014700000980299401A0399411801984018019068
:10148000FFE70298039001980499884201D3FFE78F
:1014900001E0FFE7D8E706B07047C04614E000E07F
:1014A0007000002018E000E080B584B000200390B8
:1014B000FFF7F8F8FFF71EFF1020FFF7A7FFFFF771
:1014C000E9FEFFE7094901910878FE221040087003
:1014D0007D2080000290FFF787FF019A0298117823
:1014E000012319431170FFF77FFFEBE7140400504D
:1014F00000000000000000000000000000000000EC
:1015000000000000000000000000000000000000DB
:1015100001000000020000000300000004000000C1
:10152000060000000700000008000000090000009D
:101530005015000800000020100000000401000801
:101540006015000810000020680600002001000857
:101550000024F4000100000004000000000000006E
:04000005080000C12E
:00000001FF
